:100000000C9434000C9446000C9446000C9446006A
:100010000C9446000C9446000C9446000C94460048
:100020000C9446000C9446000C9446000C94460038
:100030000C9446000C9446000C9446000C94460028
:100040000C9446000C949C000C9446000C944600C2
:100050000C9446000C9446000C9446000C94460008
:100060000C9446000C94460011241FBECFEFD8E03C
:10007000DEBFCDBF21E0A0E0B1E001C01D92A13004
:10008000B207E1F70E9480000C9407010C94000075
:1000900080E480937C0087E880937A008CE08093F2
:1000A0007E000895ECE7F0E09081907F8F70892BBF
:1000B0008083EAE7F0E080818064808380917A0029
:1000C00086FDFCCF209178008091790090E0982FF8
:1000D0008827822B089584B1836084B98AB18C6F9C
:1000E0008AB984B18B7F84B985B1846085B90E9457
:1000F000480085B18C7F85B98BB183708BB9089529
:100100000E946B0020E040E060E080E00E94E6009A
:100110000E9403017894FFCF282F30E0220F331F75
:10012000220F331F2BB995B19C7F829586958695BA
:100130008370892B85B908951F920F920FB60F9285
:1001400011242F933F934F935F936F937F938F93DC
:100150009F93AF93BF93CF93EF93FF93CEB5C037E9
:1001600071F482E00E945200969587959695879546
:100170008EBD0E948C0081E08093000115C08091AB
:100180000001882369F083E00E94520096958795CC
:10019000969587958EBD0E948C001092000104C038
:1001A0008C2F0E948C00CEBDFF91EF91CF91BF911B
:1001B000AF919F918F917F916F915F914F913F91FF
:1001C0002F910F900FBE0F901F901895813031F432
:1001D00084B1886284B980E58CBD05C084B180613A
:1001E00084B980E48CBD613019F48CB580628CBD1B
:1001F000413019F48CB588608CBD213019F48CB570
:1002000084608CBD08958CB580688CBD0895F89489
:02021000FFCF1E
:00000001FF
