S01500004D61657374726F5072756562612E73726563D5
S11300000C9434000C9449000C9449000C9449005D
S11300100C9449000C9449000C9449000C94490038
S11300200C9449000C9449000C9449000C94490028
S11300300C9449000C9449000C9449000C94490018
S11300400C9449000C9449000C9449000C94490008
S11300500C9449000C9449000C9449000C944900F8
S11300600C9449000C94490011241FBECFEFD8E032
S1130070DEBFCDBF11E0A0E0B1E0ECE7F9E002C0E3
S113008005900D92AE35B107D9F70E94C4000C94C7
S1130090BC040C94000084B1836084B98AB18C6F71
S11300A08AB987B1816087B988B1816088B90895B8
S11300B0282F30E0220F331F220F331F2BB995B1A5
S11300C09C7F8295869586958370892B85B9089542
S11300D0EF92FF921F93CF93DF93CDB7DEB7A09734
S11300E00FB6F894DEBF0FBECDBF88B18E7F88B93E
S11300F085E38A95F1F7000080E70E9439010E94A8
S11301003701182F80E00E9439010E94370198B10D
S1130110916098B91F928F931F921F9380E091E092
S11301209F938F93CE0101967C019F938F930E949E
S1130130C201C7010E945B01812F0E9458000FB6C3
S1130140F894DEBF0FBECDBF812FA0960FB6F894F2
S1130150DEBF0FBECDBFDF91CF911F91FF90EF9017
S113016008959BB1282F30E0220F331F220F331F35
S11301709370292B2BB995B19C7F82958695869592
S11301808370892B85B90895CF93DF9300D000D075
S1130190CDB7DEB70E944B0020E040E060E081E094
S11301A00E941A010E943E018DE091E00E945B01D1
S11301B084E291E00E945B018AB18C6F8AB984B1B8
S11301C0836084B98091C0008823E4F71091C6004D
S11301D00E947501082F0E94B100802F0E943901EE
S11301E0103719F40E946800EDCF812F0E94580047
S11301F088B18E7F88B985E38A95F1F70000812F55
S11302000E94390188B1816088B988E591E00E9433
S11302105B014AE0BE016F5F7F4F812F90E00E9437
S11302209D01CE0101960E945B018BE091E00E944A
S11302305B01C8CF813031F484B1886284B980E530
S11302408CBD05C084B1806184B980E48CBD61300B
S113025019F48CB580628CBD413019F48CB588607A
S11302608CBD213019F48CB584608CBD08958EB595
S113027008958EBD0DB407FEFDCF08958AB1826046
S11302808AB98AB18E7F8AB982E08093C00088E1FE
S11302908093C10086E08093C2008FEC90E090933D
S11302A0C5008093C40008959091C00095FFFCCFD1
S11302B08093C60008950F931F93CF938C01C0E0E1
S11302C003C00E945401CF5FF801EC0FF11D80813F
S11302D08111F7CFCF911F910F9108958091C000A4
S11302E08823E4F78091C6000895CF93DF93C0E09C
S11302F0D0E002C0CFEFD0E00E946E018D30C9F093
S11303008A30B9F090ED980F9A30B0F79E01220F21
S1130310331FCC0FDD1FCC0FDD1FCC0FDD1FC20F31
S1130320D31FC80FD11DE097CF3FD10509F010F7B7
S1130330E3CF8C2FDF91CF910895BB274A3031F45E
S1130340992322F4BDE2909581959F4F0C94A901C5
S1130350BB27FB015527AA27880F991FAA1FA4179B
S113036010F0A41B83955051B9F7A05DAA3308F08F
S1130370A95DA193009779F7B111B1931192CB01C3
S11303800C94DB03AEE0B0E0E8ECF1E00C949304F1
S11303900D891E8986E08C831A8309838FEF9FE77A
S11303A09E838D83AE01475E5F4F6F89788DCE014A
S11303B001960E94E401EF81F885E00FF11F10829D
S11303C02E96E4E00C94AF04ABE0B0E0EAEEF1E08A
S11303D00C9485046C017B018A01FC01178216824E
S11303E0838181FFCCC1CE0101963C01F60193814A
S11303F0F70193FD859193FF81917F01882309F48F
S1130400BAC1853239F493FD859193FF81917F01BF
S1130410853229F4B60190E00E94EB03E7CF912CDA
S1130420212C312CFFE1F315D8F08B3279F038F41C
S1130430803279F08332A1F4232D20611DC08D32E6
S113044061F0803369F4232D216016C0832D82600E
S1130450382EE32DE4603E2E2AC0F32DF8601DC033
S113046037FC2DC020ED280F2A3040F08E32B9F42D
S113047036FC81C1232D2064322E19C036FE06C0FD
S11304808AE0989E200D1124922E11C0EAE02E9E3F
S1130490200D1124222EF32DF0623F2E08C08C363D
S11304A021F4832D8068382E02C0883641F4F70188
S11304B093FD859193FF81917F018111B3CF982F93
S11304C09F7D9554933028F40C5F1F4F9FE39983CD
S11304D00DC0833631F0833771F0833509F059C08C
S11304E021C0F801808189830E5F1F4F8824839483
S11304F0912C530113C02801F2E04F0E511CF80156
S1130500A080B18036FE03C0692D70E002C06FEF99
S11305107FEFC5010E94D0034C018201F32DFF77C8
S11305203F2E16C0280122E0420E511CF801A08083
S1130530B18036FE03C0692D70E002C06FEF7FEF1B
S1130540C5010E94C5034C01F32DF0683F2E8201C2
S113055033FC1BC0822D90E088169906B0F4B601D6
S113056080E290E00E94EB032A94F4CFF50137FC7B
S1130570859137FE81915F01B60190E00E94EB0303
S113058021102A9421E0821A91088114910471F7B0
S1130590E8C0843611F0893641F5F80137FE07C00A
S11305A060817181828193810C5F1F4F08C06081DB
S11305B07181072E000C880B990B0E5F1F4FF32DD2
S11305C0FF763F2E97FF09C09095809570956195B1
S11305D07F4F8F4F9F4FF0683F2E2AE030E0A301FA
S11305E00E942704882E861845C0853731F4232DB0
S11305F02F7EB22E2AE030E025C0932D997FB92EAC
S11306008F36C1F018F4883579F0B5C0803719F009
S1130610883721F0B0C0E92FE061BE2EB4FE0DC0D2
S1130620FB2DF460BF2E09C034FE0AC0292F2660BA
S1130630B22E06C028E030E005C020E130E002C060
S113064020E132E0F801B7FE07C060817181828148
S113065093810C5F1F4F06C06081718180E090E040
S11306600E5F1F4FA3010E942704882E8618FB2DBE
S1130670FF773F2E36FE0DC0232D2E7FA22E891428
S113068058F434FE0BC032FC09C0832D8E7EA82E94
S113069005C0B82CA32C03C0B82C01C0B92CA4FEEF
S11306A00FC0FE01E80DF11D8081803321F49A2DE5
S11306B0997EA92E09C0A2FE06C0B394B39404C0C7
S11306C08A2D867809F0B394A3FC11C0A0FE06C05D
S11306D0B21488F4280C922C9B180EC0B21460F447
S11306E0B60180E290E00E94EB03B394F7CFB2141A
S11306F018F42B1802C0982C212CA4FE10C0B601AB
S113070080E390E00E94EB03A2FE17C0A1FC03C0AB
S113071088E790E002C088E590E0B6010CC08A2D1D
S1130720867859F0A1FE02C08BE201C080E2A7FCEA
S11307308DE2B60190E00E94EB03891438F4B6010F
S113074080E390E00E94EB039A94F7CF8A94F3013C
S1130750E80DF11D8081B60190E00E94EB03811049
S1130760F5CF222009F442CEB60180E290E00E9447
S1130770EB032A94F6CFF6018681978102C08FEFAE
S11307809FEF2B96E2E10C94A104FC0105906150CB
S113079070400110D8F7809590958E0F9F1F089593
S11307A0FC016150704001900110D8F7809590953C
S11307B08E0F9F1F0895DC01FC01672F7191772331
S11307C0E1F7329704C07C916D9370836291AE1708
S11307D0BF07C8F308950F931F93CF93DF93FB01D3
S11307E0238121FD03C08FEF9FEF2CC022FF16C091
S11307F046815781248135814217530744F4A081EF
S1130800B1819D012F5F3F4F318320838C932681DB
S113081037812F5F3F4F3783268314C08B01EC0150
S1130820FB010084F185E02D0995892BE1F6D801BF
S113083016968D919C911797019617969C938E937B
S11308401697CE01DF91CF911F910F910895FA0170
S1130850AA27283051F1203181F1E8946F936E7FFB
S11308606E5F7F4F8F4F9F4FAF4FB1E03ED0B4E0EC
S11308703CD0670F781F891F9A1FA11D680F791F2D
S11308808A1F911DA11D6A0F711D811D911DA11D3E
S113089020D009F468943F912AE0269F112430194E
S11308A0305D3193DEF6CF010895462F4770405DE9
S11308B04193B3E00FD0C9F7F6CF462F4F70405D98
S11308C04A3318F0495D31FD4052419302D0A9F7F3
S11308D0EACFB4E0A6959795879577956795BA95ED
S11308E0C9F700976105710508959B01AC010A2EB3
S11308F006945795479537952795BA95C9F7620F8A
S1130900731F841F951FA01D08952F923F924F922D
S11309105F926F927F928F929F92AF92BF92CF928B
S1130920DF92EF92FF920F931F93CF93DF93CDB794
S1130930DEB7CA1BDB0B0FB6F894DEBF0FBECDBF0C
S113094009942A88398848885F846E847D848C84DD
S11309509B84AA84B984C884DF80EE80FD800C81E6
S11309601B81AA81B981CE0FD11D0FB6F894DEBFC9
S10F09700FBECDBFED010895F894FFCF39
S113097C50313A25642050323A25640A0053697385
S113098C74656D61204D61657374726F206C69734D
S113099C746F0A00456E7669653A0A2D2027702714
S11309AC207061726120706F74656E63696F6D6520
S11309BC74726F730A2D20302D32353520706172AC
S11109CC61204C4544730A004C45443A000037
S9030000FC
